{
  "contractName": "ShoppingList",
  "abi": [
    {
      "constant": true,
      "inputs": [],
      "name": "itemCount",
      "outputs": [
        {
          "name": "",
          "type": "uint256"
        }
      ],
      "payable": false,
      "stateMutability": "view",
      "type": "function",
      "signature": "0x6bfb0d01"
    }
  ],
  "bytecode": "0x608060405260008055348015601357600080fd5b506093806100226000396000f3fe6080604052600436106038577c010000000000000000000000000000000000000000000000000000000060003504636bfb0d018114603d575b600080fd5b348015604857600080fd5b50604f6061565b60408051918252519081900360200190f35b6000548156fea165627a7a72305820ce6bba99ae3c4d14145c4458e73aff11ddddaef74b02b0d362cfafecec68c55b0029",
  "source": "pragma solidity ^0.5.1;\r\n\r\ncontract ShoppingList {\r\n    uint public itemCount = 0;\r\n}",
  "sourcePath": "C:/Users/yukse/personalProjects/Shop-ListEth/contracts/ShoppingList.sol",
  "compiler": {
    "name": "solc",
    "version": "0.5.1+commit.c8a2cb62.Emscripten.clang"
  },
  "schemaVersion": "3.0.1",
  "updatedAt": "2025-07-06T13:48:43.536Z",
  "devdoc": {
    "methods": {}
  },
  "userdoc": {
    "methods": {}
  }
}