{
  "contractName": "ShoppingList",
  "abi": [
    {
      "constant": true,
      "inputs": [],
      "name": "itemCount",
      "outputs": [
        {
          "name": "",
          "type": "uint256"
        }
      ],
      "payable": false,
      "stateMutability": "view",
      "type": "function",
      "signature": "0x6bfb0d01"
    },
    {
      "constant": true,
      "inputs": [
        {
          "name": "",
          "type": "uint256"
        }
      ],
      "name": "items",
      "outputs": [
        {
          "name": "id",
          "type": "uint256"
        },
        {
          "name": "content",
          "type": "string"
        },
        {
          "name": "purchased",
          "type": "bool"
        }
      ],
      "payable": false,
      "stateMutability": "view",
      "type": "function",
      "signature": "0xbfb231d2"
    },
    {
      "inputs": [],
      "payable": false,
      "stateMutability": "nonpayable",
      "type": "constructor",
      "signature": "constructor"
    },
    {
      "anonymous": false,
      "inputs": [
        {
          "indexed": false,
          "name": "id",
          "type": "uint256"
        },
        {
          "indexed": false,
          "name": "content",
          "type": "string"
        },
        {
          "indexed": false,
          "name": "purchased",
          "type": "bool"
        }
      ],
      "name": "ItemCreated",
      "type": "event",
      "signature": "0x5ee61804788544847703653c82e9bbe0040bc0c8b4f2dc9e28c6ac1b2efeae14"
    },
    {
      "anonymous": false,
      "inputs": [
        {
          "indexed": false,
          "name": "id",
          "type": "uint256"
        },
        {
          "indexed": false,
          "name": "content",
          "type": "string"
        },
        {
          "indexed": false,
          "name": "purchased",
          "type": "bool"
        }
      ],
      "name": "PurchasedItem",
      "type": "event",
      "signature": "0x186b73c6d1425b7c780972b616073a1ffda0c54167ec85a808c7205bc8a11067"
    },
    {
      "constant": false,
      "inputs": [
        {
          "name": "_content",
          "type": "string"
        }
      ],
      "name": "createItem",
      "outputs": [],
      "payable": false,
      "stateMutability": "nonpayable",
      "type": "function",
      "signature": "0x3d54eebb"
    },
    {
      "constant": false,
      "inputs": [
        {
          "name": "_id",
          "type": "uint256"
        }
      ],
      "name": "togglePurchased",
      "outputs": [],
      "payable": false,
      "stateMutability": "nonpayable",
      "type": "function",
      "signature": "0x651ea6f1"
    }
  ],
  "bytecode": "0x60806040526000805534801561001457600080fd5b5060408051808201909152600581527f4272656164000000000000000000000000000000000000000000000000000000602082015261005b90640100000000610132810204565b60408051808201909152600481527f4d696c6b0000000000000000000000000000000000000000000000000000000060208201526100a190640100000000610132810204565b60408051808201909152600481527f456767730000000000000000000000000000000000000000000000000000000060208201526100e790640100000000610132810204565b60408051808201909152600681527f4368656573650000000000000000000000000000000000000000000000000000602082015261012d90640100000000610132810204565b6102f1565b600080546001908101808355604080516060810182528281526020808201878152828401879052938652848152919094208451815591518051929361017f93908501929190910190610256565b5060408201518160020160006101000a81548160ff0219169083151502179055509050507f5ee61804788544847703653c82e9bbe0040bc0c8b4f2dc9e28c6ac1b2efeae14600054826000604051808481526020018060200183151515158152602001828103825284818151815260200191508051906020019080838360005b838110156102175781810151838201526020016101ff565b50505050905090810190601f1680156102445780820380516001836020036101000a031916815260200191505b5094505050505060405180910390a150565b828054600181600116156101000203166002900490600052602060002090601f016020900481019282601f1061029757805160ff19168380011785556102c4565b828001600101855582156102c4579182015b828111156102c45782518255916020019190600101906102a9565b506102d09291506102d4565b5090565b6102ee91905b808211156102d057600081556001016102da565b90565b6106c3806103006000396000f3fe6080604052600436106100615763ffffffff7c01000000000000000000000000000000000000000000000000000000006000350416633d54eebb8114610066578063651ea6f11461011b5780636bfb0d0114610145578063bfb231d21461016c575b600080fd5b34801561007257600080fd5b506101196004803603602081101561008957600080fd5b8101906020810181356401000000008111156100a457600080fd5b8201836020820111156100b657600080fd5b803590602001918460018302840111640100000000831117156100d857600080fd5b91908080601f016020809104026020016040519081016040528093929190818152602001838380828437600092019190915250929550610220945050505050565b005b34801561012757600080fd5b506101196004803603602081101561013e57600080fd5b5035610344565b34801561015157600080fd5b5061015a610523565b60408051918252519081900360200190f35b34801561017857600080fd5b506101966004803603602081101561018f57600080fd5b5035610529565b604051808481526020018060200183151515158152602001828103825284818151815260200191508051906020019080838360005b838110156101e35781810151838201526020016101cb565b50505050905090810190601f1680156102105780820380516001836020036101000a031916815260200191505b5094505050505060405180910390f35b600080546001908101808355604080516060810182528281526020808201878152828401879052938652848152919094208451815591518051929361026d939085019291909101906105d8565b5060408201518160020160006101000a81548160ff0219169083151502179055509050507f5ee61804788544847703653c82e9bbe0040bc0c8b4f2dc9e28c6ac1b2efeae14600054826000604051808481526020018060200183151515158152602001828103825284818151815260200191508051906020019080838360005b838110156103055781810151838201526020016102ed565b50505050905090810190601f1680156103325780820380516001836020036101000a031916815260200191505b5094505050505060405180910390a150565b61034c610656565b60008281526001602081815260409283902083516060810185528154815281840180548651600296821615610100026000190190911695909504601f810185900485028601850190965285855290949193858401939092908301828280156103f55780601f106103ca576101008083540402835291602001916103f5565b820191906000526020600020905b8154815290600101906020018083116103d857829003601f168201915b50505091835250506002919091015460ff16151560209182015260408083018051159052600085815260018084529190208351815583830151805194955085949193610446938501929101906105d8565b5060408201518160020160006101000a81548160ff0219169083151502179055509050507f186b73c6d1425b7c780972b616073a1ffda0c54167ec85a808c7205bc8a110678282602001518360400151604051808481526020018060200183151515158152602001828103825284818151815260200191508051906020019080838360005b838110156104e35781810151838201526020016104cb565b50505050905090810190601f1680156105105780820380516001836020036101000a031916815260200191505b5094505050505060405180910390a15050565b60005481565b600160208181526000928352604092839020805481840180548651600296821615610100026000190190911695909504601f810185900485028601850190965285855290949193929091908301828280156105c55780601f1061059a576101008083540402835291602001916105c5565b820191906000526020600020905b8154815290600101906020018083116105a857829003601f168201915b5050506002909301549192505060ff1683565b828054600181600116156101000203166002900490600052602060002090601f016020900481019282601f1061061957805160ff1916838001178555610646565b82800160010185558215610646579182015b8281111561064657825182559160200191906001019061062b565b5061065292915061067a565b5090565b60606040519081016040528060008152602001606081526020016000151581525090565b61069491905b808211156106525760008155600101610680565b9056fea165627a7a7230582039d73f620c2b92f2f435c57732ea31bd8876b43144f54a01a29a4fffca341dd50029",
  "source": "pragma solidity ^0.5.0;\r\n\r\ncontract ShoppingList {\r\n    uint public itemCount = 0;\r\n    \r\n    struct Item {\r\n        uint id;\r\n        string content;\r\n        bool purchased;\r\n    }\r\n    \r\n    mapping (uint => Item) public items;\r\n\r\n    event ItemCreated (\r\n        uint id,\r\n        string content,\r\n        bool purchased\r\n    );\r\n\r\n    event PurchasedItem (\r\n        uint id,\r\n        string content,\r\n        bool purchased\r\n    );\r\n\r\n    constructor() public {\r\n        createItem(\"Bread\");\r\n        createItem(\"Milk\");\r\n        createItem(\"Eggs\");\r\n        createItem(\"Cheese\");\r\n    }\r\n\r\n    function createItem(string memory _content) public {\r\n        itemCount++;\r\n        items[itemCount] = Item(itemCount, _content, false);\r\n        emit ItemCreated(itemCount, _content, false);\r\n    }\r\n\r\n    function togglePurchased(uint _id) public {\r\n        Item memory _item = items[_id];\r\n        _item.purchased = !_item.purchased;\r\n        items[_id] = _item;\r\n        emit PurchasedItem(_id, _item.content, _item.purchased);\r\n    }\r\n}",
  "sourcePath": "C:/Users/yukse/personalProjects/Shop-ListEth/contracts/ShoppingList.sol",
  "compiler": {
    "name": "solc",
    "version": "0.5.0+commit.1d4f565a.Emscripten.clang"
  },
  "schemaVersion": "3.0.1",
  "updatedAt": "2025-07-06T17:05:40.012Z",
  "devdoc": {
    "methods": {}
  },
  "userdoc": {
    "methods": {}
  }
}